{
    "abi": [
        {
            "type": "constructor",
            "inputs": [
                {
                    "name": "_relayers",
                    "type": "address[]",
                    "internalType": "address[]"
                },
                {
                    "name": "_permit2",
                    "type": "address",
                    "internalType": "address"
                }
            ],
            "stateMutability": "nonpayable"
        },
        {
            "type": "function",
            "name": "batchPaymentMSMT",
            "inputs": [
                {
                    "name": "relayerIndex",
                    "type": "uint16",
                    "internalType": "uint16"
                },
                {
                    "name": "froms",
                    "type": "address[]",
                    "internalType": "address[]"
                },
                {
                    "name": "tos",
                    "type": "address[]",
                    "internalType": "address[]"
                },
                {
                    "name": "tokens",
                    "type": "address[]",
                    "internalType": "contract ERC20[]"
                },
                {
                    "name": "amounts",
                    "type": "uint256[]",
                    "internalType": "uint256[]"
                },
                {
                    "name": "paymentsNC",
                    "type": "tuple[]",
                    "internalType": "struct BundlePayV2.BatchPaymentSSPermit[]",
                    "components": [
                        {
                            "name": "permit",
                            "type": "tuple",
                            "internalType": "struct ISignatureTransfer.PermitBatchTransferFrom",
                            "components": [
                                {
                                    "name": "permitted",
                                    "type": "tuple[]",
                                    "internalType": "struct ISignatureTransfer.TokenPermissions[]",
                                    "components": [
                                        {
                                            "name": "token",
                                            "type": "address",
                                            "internalType": "address"
                                        },
                                        {
                                            "name": "amount",
                                            "type": "uint256",
                                            "internalType": "uint256"
                                        }
                                    ]
                                },
                                {
                                    "name": "nonce",
                                    "type": "uint256",
                                    "internalType": "uint256"
                                },
                                {
                                    "name": "deadline",
                                    "type": "uint256",
                                    "internalType": "uint256"
                                }
                            ]
                        },
                        {
                            "name": "transferDetails",
                            "type": "tuple[]",
                            "internalType": "struct ISignatureTransfer.SignatureTransferDetails[]",
                            "components": [
                                {
                                    "name": "to",
                                    "type": "address",
                                    "internalType": "address"
                                },
                                {
                                    "name": "requestedAmount",
                                    "type": "uint256",
                                    "internalType": "uint256"
                                }
                            ]
                        },
                        {
                            "name": "from",
                            "type": "address",
                            "internalType": "address"
                        },
                        {
                            "name": "signature",
                            "type": "bytes",
                            "internalType": "bytes"
                        }
                    ]
                }
            ],
            "outputs": [],
            "stateMutability": "nonpayable"
        },
        {
            "type": "function",
            "name": "batchPaymentSSMT",
            "inputs": [
                {
                    "name": "relayerIndex",
                    "type": "uint16",
                    "internalType": "uint16"
                },
                {
                    "name": "from",
                    "type": "address",
                    "internalType": "address"
                },
                {
                    "name": "tokens",
                    "type": "address[]",
                    "internalType": "contract ERC20[]"
                },
                {
                    "name": "tos",
                    "type": "address[]",
                    "internalType": "address[]"
                },
                {
                    "name": "amounts",
                    "type": "uint256[]",
                    "internalType": "uint256[]"
                }
            ],
            "outputs": [],
            "stateMutability": "nonpayable"
        },
        {
            "type": "function",
            "name": "batchPaymentSSPermit",
            "inputs": [
                {
                    "name": "relayerIndex",
                    "type": "uint16",
                    "internalType": "uint16"
                },
                {
                    "name": "from",
                    "type": "address",
                    "internalType": "address"
                },
                {
                    "name": "permit",
                    "type": "tuple",
                    "internalType": "struct ISignatureTransfer.PermitBatchTransferFrom",
                    "components": [
                        {
                            "name": "permitted",
                            "type": "tuple[]",
                            "internalType": "struct ISignatureTransfer.TokenPermissions[]",
                            "components": [
                                {
                                    "name": "token",
                                    "type": "address",
                                    "internalType": "address"
                                },
                                {
                                    "name": "amount",
                                    "type": "uint256",
                                    "internalType": "uint256"
                                }
                            ]
                        },
                        {
                            "name": "nonce",
                            "type": "uint256",
                            "internalType": "uint256"
                        },
                        {
                            "name": "deadline",
                            "type": "uint256",
                            "internalType": "uint256"
                        }
                    ]
                },
                {
                    "name": "transferDetails",
                    "type": "tuple[]",
                    "internalType": "struct ISignatureTransfer.SignatureTransferDetails[]",
                    "components": [
                        {
                            "name": "to",
                            "type": "address",
                            "internalType": "address"
                        },
                        {
                            "name": "requestedAmount",
                            "type": "uint256",
                            "internalType": "uint256"
                        }
                    ]
                },
                {
                    "name": "signature",
                    "type": "bytes",
                    "internalType": "bytes"
                }
            ],
            "outputs": [],
            "stateMutability": "nonpayable"
        },
        {
            "type": "function",
            "name": "batchPaymentSSST",
            "inputs": [
                {
                    "name": "relayerIndex",
                    "type": "uint16",
                    "internalType": "uint16"
                },
                {
                    "name": "from",
                    "type": "address",
                    "internalType": "address"
                },
                {
                    "name": "token",
                    "type": "address",
                    "internalType": "contract ERC20"
                },
                {
                    "name": "tos",
                    "type": "address[]",
                    "internalType": "address[]"
                },
                {
                    "name": "amounts",
                    "type": "uint256[]",
                    "internalType": "uint256[]"
                }
            ],
            "outputs": [],
            "stateMutability": "nonpayable"
        },
        {
            "type": "function",
            "name": "permit2",
            "inputs": [],
            "outputs": [
                {
                    "name": "",
                    "type": "address",
                    "internalType": "address"
                }
            ],
            "stateMutability": "view"
        },
        {
            "type": "function",
            "name": "relayers",
            "inputs": [
                {
                    "name": "",
                    "type": "uint16",
                    "internalType": "uint16"
                }
            ],
            "outputs": [
                {
                    "name": "",
                    "type": "address",
                    "internalType": "address"
                }
            ],
            "stateMutability": "view"
        },
        {
            "type": "function",
            "name": "setRelayer",
            "inputs": [
                {
                    "name": "callerRelayerIndex",
                    "type": "uint16",
                    "internalType": "uint16"
                },
                {
                    "name": "relayerIndex",
                    "type": "uint16",
                    "internalType": "uint16"
                },
                {
                    "name": "relayer",
                    "type": "address",
                    "internalType": "address"
                }
            ],
            "outputs": [],
            "stateMutability": "nonpayable"
        },
        {
            "type": "function",
            "name": "setRelayers",
            "inputs": [
                {
                    "name": "callerRelayerIndex",
                    "type": "uint16",
                    "internalType": "uint16"
                },
                {
                    "name": "relayerIndices",
                    "type": "uint16[]",
                    "internalType": "uint16[]"
                },
                {
                    "name": "_relayers",
                    "type": "address[]",
                    "internalType": "address[]"
                }
            ],
            "outputs": [],
            "stateMutability": "nonpayable"
        },
        {
            "type": "function",
            "name": "singlePaymentSSSTSR",
            "inputs": [
                {
                    "name": "relayerIndex",
                    "type": "uint16",
                    "internalType": "uint16"
                },
                {
                    "name": "from",
                    "type": "address",
                    "internalType": "address"
                },
                {
                    "name": "to",
                    "type": "address",
                    "internalType": "address"
                },
                {
                    "name": "token",
                    "type": "address",
                    "internalType": "contract ERC20"
                },
                {
                    "name": "amount",
                    "type": "uint256",
                    "internalType": "uint256"
                }
            ],
            "outputs": [],
            "stateMutability": "nonpayable"
        },
        {
            "type": "error",
            "name": "InvalidRelayer",
            "inputs": []
        },
        {
            "type": "error",
            "name": "ZeroAddress",
            "inputs": []
        }
    ],
    "bytecode": {
        "object": "0x60a06040523461016f57610e398038038061001981610187565b92833981019060408183031261016f5780516001600160401b03811161016f5781019180601f8401121561016f578251926001600160401b038411610173578360051b9060208061006b818501610187565b80978152019282010192831161016f57602001905b8282106101575784610094602086016101ac565b6001600160a01b03811615610129576080525f5b81519061ffff811691821015610138576001600160a01b036100ca83856101c0565b5116156101295761ffff916001600160a01b036100e782866101c0565b5116905f525f60205260405f209060018060a01b03198254161790551661ffff8114610115576001016100a8565b634e487b7160e01b5f52601160045260245ffd5b63d92e233d60e01b5f5260045ffd5b604051610c5090816101e9823960805181818161026b0152610bcd0152f35b60208091610164846101ac565b815201910190610080565b5f80fd5b634e487b7160e01b5f52604160045260245ffd5b6040519190601f01601f191682016001600160401b0381118382101761017357604052565b51906001600160a01b038216820361016f57565b80518210156101d45760209160051b010190565b634e487b7160e01b5f52603260045260245ffdfe60806040526004361015610011575f80fd5b5f3560e01c8063063d98ec146100a457806309918b281461009f5780630c11b5791461009a57806312261ee7146100955780636ca6c9c41461009057806385290e1a1461008b5780638ab4e300146100865780638adbb6b8146100815763d2548cab1461007c575f80fd5b61060e565b61054f565b6104fd565b610442565b6102f7565b610256565b61021c565b6101d1565b3461016c5760c036600319011261016c576100bd610170565b6024356001600160401b03811161016c576100dc903690600401610190565b916044356001600160401b03811161016c576100fc903690600401610190565b906064356001600160401b03811161016c5761011c903690600401610190565b906084356001600160401b03811161016c5761013c903690600401610190565b94909360a435986001600160401b038a1161016c5761016261016a9a3690600401610190565b999098610774565b005b5f80fd5b6004359061ffff8216820361016c57565b359061ffff8216820361016c57565b9181601f8401121561016c578235916001600160401b03831161016c576020808501948460051b01011161016c57565b6001600160a01b0381160361016c57565b3461016c57606036600319011261016c576101ea610170565b60243561ffff8116810361016c5761020d60443592610208846101c0565b610936565b5f525f60205260405f20555f80f35b3461016c57602036600319011261016c5761ffff610238610170565b165f525f602052602060018060a01b0360405f205416604051908152f35b3461016c575f36600319011261016c576040517f00000000000000000000000000000000000000000000000000000000000000006001600160a01b03168152602090f35b9181601f8401121561016c578235916001600160401b03831161016c576020808501948460061b01011161016c57565b9181601f8401121561016c578235916001600160401b03831161016c576020838186019501011161016c57565b3461016c5760a036600319011261016c57610310610170565b60243561031c816101c0565b6044356001600160401b03811161016c576060600319823603011261016c576064356001600160401b03811161016c5761035a90369060040161029a565b90608435946001600160401b03861161016c5761037e61016a9636906004016102ca565b9590946004019161086c565b634e487b7160e01b5f52604160045260245ffd5b90601f801991011681019081106001600160401b038211176103bf57604052565b61038a565b6001600160401b0381116103bf5760051b60200190565b9080601f8301121561016c5781356103f2816103c4565b92610400604051948561039e565b81845260208085019260051b82010192831161016c57602001905b8282106104285750505090565b602080918335610437816101c0565b81520191019061041b565b3461016c57606036600319011261016c5761045b610170565b602435906001600160401b03821161016c573660238301121561016c57816004013591610487836103c4565b92610495604051948561039e565b8084526024602085019160051b8301019136831161016c57602401905b8282106104e557505050604435916001600160401b03831161016c576104df61016a9336906004016103db565b91610885565b602080916104f284610181565b8152019101906104b2565b3461016c5760a036600319011261016c5761016a610519610170565b602435610525816101c0565b60443590610532826101c0565b60643561053e816101c0565b61054a60843594610936565b610955565b3461016c5760a036600319011261016c57610568610170565b602435610574816101c0565b60443590610581826101c0565b6064356001600160401b03811161016c576105a0903690600401610190565b929093608435926001600160401b03841161016c576105c66105ce943690600401610190565b949092610936565b5f5b8581106105d957005b806106086105ea600193898b6106b4565b356105f4816101c0565b6105ff8389886106b4565b35908588610955565b016105d0565b3461016c5760a036600319011261016c57610627610170565b602435610633816101c0565b6044356001600160401b03811161016c57610652903690600401610190565b6064939193356001600160401b03811161016c57610674903690600401610190565b91608435956001600160401b03871161016c5761069861016a973690600401610190565b9690956108c9565b634e487b7160e01b5f52603260045260245ffd5b91908110156106c45760051b0190565b6106a0565b356106d3816101c0565b90565b91908110156106c45760051b81013590607e198136030182121561016c570190565b903590605e198136030182121561016c570190565b903590601e198136030182121561016c57018035906001600160401b03821161016c57602001918160061b3603831361016c57565b903590601e198136030182121561016c57018035906001600160401b03821161016c5760200191813603831361016c57565b61078690989493959897969197610936565b5f5b838110610816575050505050505050505f5b8281106107a657505050565b806108106107c260406107bc60019588886106d6565b016106c9565b6107d66107d08488886106d6565b806106f8565b906107ef6107e58589896106d6565b602081019061070d565b906108086107fe878b8b6106d6565b6060810190610742565b949093610ae2565b0161079a565b8061086689898961085f858f610859610848838f938f908f8f9e60019f9161084d6108488361084895610853976106b4565b6106c9565b9d6106b4565b976106b4565b946106b4565b3592610955565b01610788565b9061087e610883979695949392610936565b610ae2565b565b61089190929192610936565b8151915f5b8381106108a35750505050565b8060019160051b60208082860101519186010151905f525f60205260405f205501610896565b6108dd909897989694959296939193610936565b5f5b8281106108f157505050505050509050565b80610930878b8761085f8561091f818f61090f60019b8d8f936106b4565b359761091a896101c0565b6106b4565b359361092a856101c0565b8c6106b4565b016108df565b5f525f60205260405f2054330361094957565b63b81fa7795f5260045ffd5b6040516323b872dd60e01b81526001600160a01b03928316600482015292909116602483015260448201929092526020915f9160649183905af13d15601f3d1160015f5114161716156109a457565b60405162461bcd60e51b81526020600482015260146024820152731514905394d1915497d19493d357d1905253115160621b6044820152606490fd5b6020809180356109ef816101c0565b6001600160a01b031684520135910152565b916020908281520191905f5b818110610a1a5750505090565b90919260408082610a2d600194886109e0565b019401929101610a0d565b908060209392818452848401375f828201840152601f01601f1916010190565b3d15610a91573d906001600160401b0382116103bf5760405191610a86601f8201601f19166020018461039e565b82523d5f602084013e565b606090565b15610a9d57565b60405162461bcd60e51b815260206004820152601e60248201527f7065726d69745472616e7366657246726f6d2063616c6c206661696c656400006044820152606490fd5b92939094919460405194602086019663edd9444b60e01b8852608060248801526101048701928035601e198236030181121561016c578101602081359101946001600160401b03821161016c578160061b3603861361016c578190606060a48c015252610124890194905f5b818110610bfc575050509561088398958895610ba9610b97610bc8975f9c97610bba9760408f9e602081013560c48d0152013560e48b01526023198a84030160448b0152610a01565b6001600160a01b039094166064870152565b848303602319016084860152610a38565b03601f19810183528261039e565b5190827f00000000000000000000000000000000000000000000000000000000000000005af1610bf6610a58565b50610a96565b90919560408082610c0f6001948b6109e0565b019701929101610b4e56fea26469706673582212201c8a76ddaf81eb00e990c00020e722c4cc3487e7be9001862d0b10648b7a886064736f6c634300081b0033",
        "linkReferences": {}
    },
    "methodIdentifiers": {
        "batchPaymentMSMT(uint16,address[],address[],address[],uint256[],(((address,uint256)[],uint256,uint256),(address,uint256)[],address,bytes)[])": "063d98ec",
        "batchPaymentSSMT(uint16,address,address[],address[],uint256[])": "d2548cab",
        "batchPaymentSSPermit(uint16,address,((address,uint256)[],uint256,uint256),(address,uint256)[],bytes)": "6ca6c9c4",
        "batchPaymentSSST(uint16,address,address,address[],uint256[])": "8adbb6b8",
        "permit2()": "12261ee7",
        "relayers(uint16)": "0c11b579",
        "setRelayer(uint16,uint16,address)": "09918b28",
        "setRelayers(uint16,uint16[],address[])": "85290e1a",
        "singlePaymentSSSTSR(uint16,address,address,address,uint256)": "8ab4e300"
    },
    "id": 50
}